:03000000020800F3
:0C080000787FE4F6D8FD758114020847EB
:100AD8002A2A554F442050524F4A4543542A2A0047
:0D0AE80044697374616E63653A00636D00CC
:070B4800010F4E020800003E
:100B0E00E4F58CF58AD2B50000000000000000006C
:040B1E0000C2B5223A
:100A2300120B0E30B2FD20B2FD858C83858A827550
:100A33008CFF758AFFAF82AE83E4FCFD7B707A94F2
:100A4300F9F8D31208FA400FAF82AE837C007D3BE6
:0C0A53001208A58F108003E4F510AF100E
:010A5F002274
:0D0B3200D2870000D2860000C2870000229A
:090B3F00C286C287D286D2872249
:030B50008F0A22E7
:060B2200440CFF120A6002
:0A0B2800C286D287D2862087FD2204
:020A6000AD07E0
:100A6200E4FCC2867E007480A804088006CEA2E759
:100A720013CE13D8F8FFEDFBEF5B6003D38001C305
:080A82009287D2860CBC08DA51
:010A8A002249
:1009DE00EFC454F0F510EF54F0F511120B32AF0ACC
:1009EE00120A60120B28E511120B22120A8BE51166
:1009FE004408120B247F0A7E00120A8FE510120B98
:100A0E0022120A8BE5104408120B247F0A7E001274
:050A1E000A8F020B3FEE
:0B098A007C007D0A1208A5ED2430FF60
:10099500EFC454F0F513EF54F0F514120B32AF0A0F
:1009A500120A60120B28E514440D120B24120A8B4F
:1009B500E5144409120B247F0A7E00120A8FE51301
:1009C500440D120B24120A8BE5134409120B247FE4
:0909D5000A7E00120A8F020B3F9A
:100AB3008B108A118912AB10AA11A91212088C602B
:100AC300130512E5127002051114F912088CFF12B6
:050AD300099580E222FC
:040A8B007F017E0069
:100A8F00D3EF9400EE9400401A7D797C00ED1D7039
:100A9F00011CED4C70F7000000000000EF1F70E02C
:030AAF001E80DDC9
:010AB2002221
:100AF5007F021209DE7F281209DE7F0C1209DE7FD4
:090B0500061209DE7F010209DE7F
:10091000758909E4F58CF58AD28CAF0F120B501251
:100920000AF57F801209DE7BFF7A0A79D8120AB3B2
:10093000120A237508008F09E508C313F508E509B5
:1009400013F5097FC01209DE7BFF7A0A79E8120AE3
:10095000B3AE08AF097C007D641208A5EF2430FF18
:10096000120995AE08AF097C007D0A1208A512098C
:100970008AAE08AF0912098A7BFF7A0A79F2120A55
:0A098000B37FF47E01120A8F80A6F7
:10080C00020910E493A3F8E493A34003F68001F2E9
:10081C0008DFF48029E493A3F85407240CC8C333ED
:10082C00C4540F4420C8834004F456800146F6DFBC
:10083C00E4800B0102040810204080900B48E47EF9
:10084C00019360BCA3FF543F30E509541FFEE493B1
:10085C00A360010ECF54C025E060A840B8E493A378
:10086C00FAE493A3F8E493A3C8C582C8CAC583CAA3
:10087C00F0A3C8C582C8CAC583CADFE9DEE780BE5B
:010B4F0000A5
:10088C00BB010689828A83E0225002E722BBFE026A
:09089C00E32289828A83E493229D
:1008A500BC000BBE0029EF8DF084FFADF022E4CC37
:1008B500F875F008EF2FFFEE33FEEC33FCEE9DEC00
:1008C500984005FCEE9DFE0FD5F0E9E4CEFD22ED46
:1008D500F8F5F0EE8420D21CFEADF075F008EF2F90
:1008E500FFED33FD4007985006D5F0F222C398FD81
:0508F5000FD5F0EA221E
:1008FA00EB9FF5F0EA9E42F0E99D42F0EC6480C875
:06090A0064809845F02214
:00000001FF
